:100CAE00413A200020200020423A2000433A200002
:100CBE0020443A2000546F6B656E3A20002A2A2A8F
:100CCE002A2A2A2A2A2A2A2A2A2A2A2A2A2A2A2A76
:100CDE002A2A2A2A2A0D0A002A2A2A2A2A2A42617E
:100CEE006E6B2051756575652A2A2A2A2A2A2A2AA8
:100CFE000D0A005072657373207420666F72205453
:070D0E006F6B656E0D0A001A
:100D1500C101C100022D0000022F000002310000B8
:100D2500023300000221FFFF02350000022500000A
:100D35000227000002290000022B00000239FFFEF5
:100D4500023BFFFE023DFFFE023FFFFE02230000C5
:040D55000237000958
:100D9600E4F5A0C282C280C2817F38FE120E7312B1
:100DA6000E237F067E00120E73120E237F0C7E002A
:100DB600120E73120E237F017E00120E73120E2383
:070DC6007F807E00020E7326
:040E23007F047E00CA
:100E2700E4FDFCC3ED9FEC9E5015E4FBFA0BBB0001
:0F0E3700010ABA01F8BB7EF50DBD00010C80E485
:010E46002289
:100A66008E088F098B0A8A0B890C7C277D10120948
:100A7600DBEF2430120995AE08AF097C277D1012F2
:100A860009DB7E037FE8CFCDCFCECCCE1209DBEFDC
:100A96002430AB0AAA0BA90C9000011209A7AE08D4
:100AA600AF097C037DE81209DB7E007F64CFCDCFE2
:100AB600CECCCE1209DBEF2430AB0AAA0BA90C90E0
:100AC60000021209A7AE08AF097C007D641209DB9B
:100AD6007E007F0ACFCDCFCECCCE1209DBEF2430FD
:100AE600AB0AAA0BA90C9000031209A7AE08AF091E
:100AF6007C007D0A1209DBED2430AB0AAA0BA90C97
:060B06009000040209A7A3
:0B0E68007F017E00120E737F807E0071
:100E7300C280C281D2828FA07F0A7E00120E27C257
:020E83008222C9
:100E9E00D280C281D2828FA07F0A7E00120E27C21C
:020EAE0082229E
:060DCD007BFF7A0C79B2F5
:100DD3008B0F8A108911AB0FAA10A91112097C601D
:100DE300130511E5117002051014F912097CFF12A5
:050DF3000E9E80E222CB
:100EB000758920758DF3759850D28ED2ACD2AF2241
:080EC0008F993001FDC20122EF
:060DF8007BFF7A0C79CBB1
:100DFE008B0F8A108911AB0FAA10A91112097C60F2
:100E0E00130511E5117002051014F912097CFF1279
:050E1E000EC080E2227D
:040EC800C200AF991C
:010ECC002203
:0E0D5A00AC37AD38120A30ED2401FFE43CFE48
:040D6800AB07AA0625
:100D6C007C007D0A120A308F827C007D0A1209C930
:100D7C00C3EB9FF510EA9EF50FAF82EF2430FF1204
:0A0D8C000E9EE5102430FF020E9EBB
:100B0C00120E687BFF7A0C79AE120DD3E53A64FEB7
:100B1C007003E539F46009AE39AF3A120D5A80030F
:100B2C00120DCD7BFF7A0C79B5120DD3E53C64FE2A
:100B3C007003E53BF46009AE3BAF3C120D5A8003E9
:100B4C00120DCD7FC07E00120E737BFF7A0C79BA2A
:100B5C00120DD3E53E64FE7003E53DF4600DAC3739
:100B6C00AD38AE3DAF3E120D5E8003120DCD7BFF56
:100B7C007A0C79BE120DD3E54064FE7003E53FF4A8
:100B8C006015AC37AD38AE3FAF40120A30ED2401E2
:0B0B9C00FFE43CFE020D68120DCD22AC
:100E4700120E687BFF7A0C79C3120DD3AC37AD381D
:100E5700AE21AF22120D5E7FD07E07120E27020B46
:010E67000C7E
:100C3300E52664014525701585353985363A05362F
:100C4300E53670020535E4F525F5268055E528647B
:100C5300014527701585353B85363C0536E53670ED
:100C6300020535E4F527F5288038E52A640145298E
:100C7300701585353D85363E0536E53670020535FA
:100C8300E4F529F52A801BE52C6401452B701385B7
:100C9300353F8536400536E53670020535E4F52BDC
:0B0CA300F52C0522E52270020521223D
:03002300020E8545
:0B0E8500309905C299D2013230980D5F
:0D0E900085990D752300752401C298D200CC
:010E9D003222
:10080000E4F50E75900F120D96120EB0120B0C122D
:100810000DF87BFF7A0C79E6120DFE120DF87BFFC6
:100820007A0D7901120DFEE4F523F524E52E64011D
:10083000452D70047F0180027F00A290E4336F6039
:1008400039A290E433752D00F52ED3E5369522E5D7
:10085000216480F8E53564809850108535398536F7
:100860003A0536E53670100535800C7539FF753A56
:10087000FE752500752601120B0CE5306401452F2D
:1008800070047F0180027F00A291E4336F6039A27F
:1008900091E433752F00F530D3E5369522E52164D8
:1008A00080F8E535648098501085353B85363C05E9
:1008B00036E53670100535800C753BFF753CFE75CE
:1008C0002700752801120B0CE532640145317004D4
:1008D0007F0180027F00A292E4336F6039A292E42C
:1008E00033753100F532D3E5369522E5216480F881
:1008F000E535648098501085353D85363E0536E5F2
:100900003670100535800C753DFF753EFE7529006B
:10091000752A01120B0CE5346401453370047F0124
:1009200080027F00A293E4336F6039A293E43375B1
:100930003300F534D3E5369522E5216480F8E535BA
:10094000648098501085353F8536400536E5367011
:10095000100535800C753FFF7540FE752B00752C1A
:1009600001120B0CE524640145236003020827F5FE
:0C09700023F524120C33120E4702082756
:03000000020BA749
:0C0BA700787FE4F6D8FD758140020BEE6B
:10097C00BB010689828A83E0225002E722BBFE0279
:09098C00E32289828A83E49322AC
:10099500BB010689828A83F0225002F722BBFE0141
:0209A500F3223B
:1009A700F8BB010DE58229F582E5833AF583E8F086
:1009B700225006E92582C8F622BBFE05E92582C832
:0209C700F2221A
:1009C900EF8DF0A4A8F0CF8CF0A428CE8DF0A42E42
:0209D900FE22FC
:1009DB00BC000BBE0029EF8DF084FFADF022E4CC00
:1009EB00F875F008EF2FFFEE33FEEC33FCEE9DECC9
:1009FB00984005FCEE9DFE0FD5F0E9E4CEFD22ED0F
:100A0B00F8F5F0EE8420D21CFEADF075F008EF2F58
:100A1B00FFED33FD4007985006D5F0F222C398FD49
:050A2B000FD5F0EA22E6
:100A3000C2D5EC30E709B2D5E4C39DFDE49CFCEEE1
:100A400030E715B2D5E4C39FFFE49EFE1209DBC375
:100A5000E49DFDE49CFC80031209DB30D507C3E470
:060A60009FFFE49EFE2250
:100BB300020800E493A3F8E493A34003F68001F250
:100BC30008DFF48029E493A3F85407240CC8C33343
:100BD300C4540F4420C8834004F456800146F6DF12
:100BE300E4800B0102040810204080900D15E47E80
:100BF300019360BCA3FF543F30E509541FFEE49307
:100C0300A360010ECF54C025E060A840B8E493A3CD
:100C1300FAE493A3F8E493A3C8C582C8CAC583CAF8
:100C2300F0A3C8C582C8CAC583CADFE9DEE780BEB0
:010D59000099
:00000001FF
